{
  "contractName": "ExerciceSolution",
  "abi": [
    {
      "inputs": [
        {
          "internalType": "contract ERC20Claimable",
          "name": "_claimableERC20",
          "type": "address"
        },
        {
          "internalType": "contract ERC20Mintable",
          "name": "_mintableERC20",
          "type": "address"
        }
      ],
      "stateMutability": "nonpayable",
      "type": "constructor"
    },
    {
      "inputs": [
        {
          "internalType": "address",
          "name": "",
          "type": "address"
        }
      ],
      "name": "comptes",
      "outputs": [
        {
          "internalType": "uint256",
          "name": "",
          "type": "uint256"
        }
      ],
      "stateMutability": "view",
      "type": "function",
      "constant": true
    },
    {
      "inputs": [],
      "name": "claimTokensOnBehalf",
      "outputs": [],
      "stateMutability": "nonpayable",
      "type": "function"
    },
    {
      "inputs": [
        {
          "internalType": "address",
          "name": "callerAddress",
          "type": "address"
        }
      ],
      "name": "tokensInCustody",
      "outputs": [
        {
          "internalType": "uint256",
          "name": "",
          "type": "uint256"
        }
      ],
      "stateMutability": "nonpayable",
      "type": "function"
    },
    {
      "inputs": [
        {
          "internalType": "uint256",
          "name": "amountToWithdraw",
          "type": "uint256"
        }
      ],
      "name": "withdrawTokens",
      "outputs": [
        {
          "internalType": "uint256",
          "name": "",
          "type": "uint256"
        }
      ],
      "stateMutability": "nonpayable",
      "type": "function"
    },
    {
      "inputs": [
        {
          "internalType": "uint256",
          "name": "amountToWithdraw",
          "type": "uint256"
        }
      ],
      "name": "depositTokens",
      "outputs": [
        {
          "internalType": "uint256",
          "name": "",
          "type": "uint256"
        }
      ],
      "stateMutability": "nonpayable",
      "type": "function"
    },
    {
      "inputs": [],
      "name": "getERC20DepositAddress",
      "outputs": [
        {
          "internalType": "address",
          "name": "",
          "type": "address"
        }
      ],
      "stateMutability": "nonpayable",
      "type": "function"
    }
  ],
  "bytecode": "0x608060405234801561001057600080fd5b50604051610aab380380610aab8339818101604052604081101561003357600080fd5b810190808051906020019092919080519060200190929190505050816000806101000a81548173ffffffffffffffffffffffffffffffffffffffff021916908373ffffffffffffffffffffffffffffffffffffffff16021790555080600260006101000a81548173ffffffffffffffffffffffffffffffffffffffff021916908373ffffffffffffffffffffffffffffffffffffffff16021790555050506109cb806100e06000396000f3fe608060405234801561001057600080fd5b50600436106100625760003560e01c80630776d118146100675780630e4f7f36146100bf57806313a6ea17146100c957806319fa44cd14610121578063315a095d1461016b578063dd49756e146101ad575b600080fd5b6100a96004803603602081101561007d57600080fd5b81019080803573ffffffffffffffffffffffffffffffffffffffff1690602001909291905050506101ef565b6040518082815260200191505060405180910390f35b6100c7610238565b005b61010b600480360360208110156100df57600080fd5b81019080803573ffffffffffffffffffffffffffffffffffffffff1690602001909291905050506104a9565b6040518082815260200191505060405180910390f35b6101296104c1565b604051808273ffffffffffffffffffffffffffffffffffffffff1673ffffffffffffffffffffffffffffffffffffffff16815260200191505060405180910390f35b6101976004803603602081101561018157600080fd5b81019080803590602001909291905050506104eb565b6040518082815260200191505060405180910390f35b6101d9600480360360208110156101c357600080fd5b8101908080359060200190929190505050610726565b6040518082815260200191505060405180910390f35b6000600160008373ffffffffffffffffffffffffffffffffffffffff1673ffffffffffffffffffffffffffffffffffffffff168152602001908152602001600020549050919050565b6000809054906101000a900473ffffffffffffffffffffffffffffffffffffffff1673ffffffffffffffffffffffffffffffffffffffff166348c54b9d6040518163ffffffff1660e01b8152600401600060405180830381600087803b1580156102a157600080fd5b505af11580156102b5573d6000803e3d6000fd5b505050506000809054906101000a900473ffffffffffffffffffffffffffffffffffffffff1673ffffffffffffffffffffffffffffffffffffffff16630d25320c6040518163ffffffff1660e01b815260040160206040518083038186803b15801561032057600080fd5b505afa158015610334573d6000803e3d6000fd5b505050506040513d602081101561034a57600080fd5b8101908080519060200190929190505050600160003373ffffffffffffffffffffffffffffffffffffffff1673ffffffffffffffffffffffffffffffffffffffff16815260200190815260200160002060008282540192505081905550600260009054906101000a900473ffffffffffffffffffffffffffffffffffffffff1673ffffffffffffffffffffffffffffffffffffffff166340c10f1933600160003373ffffffffffffffffffffffffffffffffffffffff1673ffffffffffffffffffffffffffffffffffffffff168152602001908152602001600020546040518363ffffffff1660e01b8152600401808373ffffffffffffffffffffffffffffffffffffffff1673ffffffffffffffffffffffffffffffffffffffff16815260200182815260200192505050600060405180830381600087803b15801561048f57600080fd5b505af11580156104a3573d6000803e3d6000fd5b50505050565b60016020528060005260406000206000915090505481565b6000600260009054906101000a900473ffffffffffffffffffffffffffffffffffffffff16905090565b600081600160003373ffffffffffffffffffffffffffffffffffffffff1673ffffffffffffffffffffffffffffffffffffffff168152602001908152602001600020600082825403925050819055506000809054906101000a900473ffffffffffffffffffffffffffffffffffffffff1673ffffffffffffffffffffffffffffffffffffffff1663a9059cbb33846040518363ffffffff1660e01b8152600401808373ffffffffffffffffffffffffffffffffffffffff1673ffffffffffffffffffffffffffffffffffffffff16815260200182815260200192505050602060405180830381600087803b1580156105e257600080fd5b505af11580156105f6573d6000803e3d6000fd5b505050506040513d602081101561060c57600080fd5b810190808051906020019092919050505050600260009054906101000a900473ffffffffffffffffffffffffffffffffffffffff1673ffffffffffffffffffffffffffffffffffffffff16639dc29fac33846040518363ffffffff1660e01b8152600401808373ffffffffffffffffffffffffffffffffffffffff1673ffffffffffffffffffffffffffffffffffffffff16815260200182815260200192505050600060405180830381600087803b1580156106c757600080fd5b505af11580156106db573d6000803e3d6000fd5b50505050600160003373ffffffffffffffffffffffffffffffffffffffff1673ffffffffffffffffffffffffffffffffffffffff168152602001908152602001600020549050919050565b60008060009054906101000a900473ffffffffffffffffffffffffffffffffffffffff1673ffffffffffffffffffffffffffffffffffffffff166323b872dd3330856040518463ffffffff1660e01b8152600401808473ffffffffffffffffffffffffffffffffffffffff1673ffffffffffffffffffffffffffffffffffffffff1681526020018373ffffffffffffffffffffffffffffffffffffffff1673ffffffffffffffffffffffffffffffffffffffff1681526020018281526020019350505050602060405180830381600087803b15801561080457600080fd5b505af1158015610818573d6000803e3d6000fd5b505050506040513d602081101561082e57600080fd5b81019080805190602001909291905050505081600160003373ffffffffffffffffffffffffffffffffffffffff1673ffffffffffffffffffffffffffffffffffffffff16815260200190815260200160002060008282540192505081905550600260009054906101000a900473ffffffffffffffffffffffffffffffffffffffff1673ffffffffffffffffffffffffffffffffffffffff166340c10f1933846040518363ffffffff1660e01b8152600401808373ffffffffffffffffffffffffffffffffffffffff1673ffffffffffffffffffffffffffffffffffffffff16815260200182815260200192505050600060405180830381600087803b15801561093657600080fd5b505af115801561094a573d6000803e3d6000fd5b50505050600160003373ffffffffffffffffffffffffffffffffffffffff1673ffffffffffffffffffffffffffffffffffffffff16815260200190815260200160002054905091905056fea2646970667358221220269cf25c1b92dd15782854b2f6beab5df14614fe5684d88655eb20c9e24ba30d64736f6c63430006020033",
  "source": "import \"./IExerciceSolution.sol\";\r\nimport \"./ERC20Claimable.sol\";\r\nimport \"./ERC20Mintable.sol\";\r\n\r\ncontract ExerciceSolution is IExerciceSolution\r\n{\r\n    ERC20Claimable claimableERC20;\r\n    mapping(address=>uint) public comptes;\r\n    ERC20Mintable mintableERC20;\r\n    \r\n\r\n    constructor(ERC20Claimable _claimableERC20,ERC20Mintable _mintableERC20) \r\n\tpublic \r\n\t{\r\n\t\tclaimableERC20 = _claimableERC20;\r\n        mintableERC20 = _mintableERC20;\r\n\t}\r\n\r\n    function claimTokensOnBehalf() override external\r\n    {\r\n        claimableERC20.claimTokens();\r\n        comptes[msg.sender]+=claimableERC20.distributedAmount();\r\n        mintableERC20.mint(msg.sender, comptes[msg.sender]);\r\n\r\n    }\r\n\r\n\tfunction tokensInCustody(address callerAddress) override external returns (uint256)\r\n    {\r\n        return comptes[callerAddress];\r\n    }\r\n\r\n\tfunction withdrawTokens(uint256 amountToWithdraw) override external returns (uint256)\r\n    {   \r\n        comptes[msg.sender]-=amountToWithdraw;\r\n        claimableERC20.transfer(msg.sender,amountToWithdraw);\r\n        mintableERC20.burn(msg.sender,amountToWithdraw);\r\n        return comptes[msg.sender];\r\n    }\r\n\r\n\tfunction depositTokens(uint256 amountToWithdraw) override external returns (uint256)\r\n    {\r\n        claimableERC20.transferFrom(msg.sender,address(this),amountToWithdraw);\r\n        comptes[msg.sender]+=amountToWithdraw;\r\n        mintableERC20.mint(msg.sender, amountToWithdraw);\r\n        return comptes[msg.sender];\r\n    }\r\n\r\n\tfunction getERC20DepositAddress() override external returns (address)\r\n    {\r\n        return address(mintableERC20);\r\n    }\r\n}",
  "sourcePath": "C:\\Users\\Rayan\\Downloads\\erc20-102-main\\erc20-102-main\\contracts\\ExerciceSolution.sol",
  "compiler": {
    "name": "solc",
    "version": "0.6.2+commit.bacdbe57.Emscripten.clang"
  },
  "schemaVersion": "3.4.3",
  "updatedAt": "2022-01-18T21:36:58.196Z",
  "networkType": "ethereum",
  "devdoc": {
    "methods": {}
  },
  "userdoc": {
    "methods": {}
  }
}